{
  "contractName": "TrainNotarization",
  "abi": [
    {
      "inputs": [],
      "payable": false,
      "stateMutability": "nonpayable",
      "type": "constructor"
    },
    {
      "anonymous": false,
      "inputs": [
        {
          "indexed": true,
          "name": "adminAddress",
          "type": "address"
        },
        {
          "indexed": true,
          "name": "trainStationAddress",
          "type": "address"
        },
        {
          "indexed": false,
          "name": "timestamp",
          "type": "int256"
        }
      ],
      "name": "trainStationRegistered",
      "type": "event"
    },
    {
      "anonymous": false,
      "inputs": [
        {
          "indexed": true,
          "name": "adminAddress",
          "type": "address"
        },
        {
          "indexed": true,
          "name": "trainAddress",
          "type": "address"
        },
        {
          "indexed": false,
          "name": "timestamp",
          "type": "int256"
        }
      ],
      "name": "trainRegistered",
      "type": "event"
    },
    {
      "anonymous": false,
      "inputs": [
        {
          "indexed": true,
          "name": "trainAddress",
          "type": "address"
        },
        {
          "indexed": false,
          "name": "pressure",
          "type": "int256"
        },
        {
          "indexed": false,
          "name": "humidity",
          "type": "int256"
        },
        {
          "indexed": false,
          "name": "temperature",
          "type": "int256"
        },
        {
          "indexed": false,
          "name": "timestamp",
          "type": "int256"
        }
      ],
      "name": "trainDataRegistered",
      "type": "event"
    },
    {
      "anonymous": false,
      "inputs": [
        {
          "indexed": true,
          "name": "carrierAddress",
          "type": "address"
        },
        {
          "indexed": false,
          "name": "pressure",
          "type": "int256"
        },
        {
          "indexed": false,
          "name": "humidity",
          "type": "int256"
        },
        {
          "indexed": false,
          "name": "temperature",
          "type": "int256"
        },
        {
          "indexed": false,
          "name": "timestamp",
          "type": "int256"
        },
        {
          "indexed": false,
          "name": "isTrainArrived",
          "type": "int256"
        },
        {
          "indexed": false,
          "name": "isCargoHere",
          "type": "int256"
        }
      ],
      "name": "trainStationDataRegistered",
      "type": "event"
    },
    {
      "constant": false,
      "inputs": [
        {
          "name": "_trainStationAddress",
          "type": "address"
        },
        {
          "name": "_pressure",
          "type": "int256"
        },
        {
          "name": "_humidity",
          "type": "int256"
        },
        {
          "name": "_temperature",
          "type": "int256"
        },
        {
          "name": "_timestamp",
          "type": "int256"
        },
        {
          "name": "_isTrainArrived",
          "type": "int256"
        },
        {
          "name": "_isCargoHere",
          "type": "int256"
        }
      ],
      "name": "updateTrainStationData",
      "outputs": [],
      "payable": false,
      "stateMutability": "nonpayable",
      "type": "function"
    },
    {
      "constant": false,
      "inputs": [
        {
          "name": "_trainAddress",
          "type": "address"
        },
        {
          "name": "_pressure",
          "type": "int256"
        },
        {
          "name": "_humidity",
          "type": "int256"
        },
        {
          "name": "_temperature",
          "type": "int256"
        },
        {
          "name": "_timestamp",
          "type": "int256"
        }
      ],
      "name": "updateTrainData",
      "outputs": [],
      "payable": false,
      "stateMutability": "nonpayable",
      "type": "function"
    }
  ],
  "bytecode": "0x6060604052341561000f57600080fd5b336000806101000a81548173ffffffffffffffffffffffffffffffffffffffff021916908373ffffffffffffffffffffffffffffffffffffffff1602179055506102358061005e6000396000f30060606040526004361061004c576000357c0100000000000000000000000000000000000000000000000000000000900463ffffffff168063a3aaf5cd14610051578063ef25299e146100ae575b600080fd5b341561005c57600080fd5b6100ac600480803573ffffffffffffffffffffffffffffffffffffffff1690602001909190803590602001909190803590602001909190803590602001909190803590602001909190505061011d565b005b34156100b957600080fd5b61011b600480803573ffffffffffffffffffffffffffffffffffffffff1690602001909190803590602001909190803590602001909190803590602001909190803590602001909190803590602001909190803590602001909190505061018a565b005b8473ffffffffffffffffffffffffffffffffffffffff167f619c1c81d61b55246f3725087ace6063ab045c92e229bfe83dba80f2daec56fe858585856040518085815260200184815260200183815260200182815260200194505050505060405180910390a25050505050565b8673ffffffffffffffffffffffffffffffffffffffff167fab9742315e0bf46f5d81ad623acabbac82649f18a34d595d2f3bf03cfaf4d77687878787878760405180878152602001868152602001858152602001848152602001838152602001828152602001965050505050505060405180910390a2505050505050505600a165627a7a723058209316cf30175b26ada384c5f386e43bcfb8aa69860e016d167f7c7e546f0ee6f80029",
  "source": "pragma solidity ^0.4.18;\ncontract TrainNotarization {\n   \n\n   address admin;\n\n   event trainStationRegistered(address indexed adminAddress, address indexed trainStationAddress, int timestamp);\n   event trainRegistered(address indexed adminAddress, address indexed trainAddress, int timestamp);\n   event trainDataRegistered(address indexed trainAddress, int pressure, int humidity, int temperature, int timestamp);\n   event trainStationDataRegistered(address indexed carrierAddress, int pressure, int humidity, int temperature, int timestamp, int isTrainArrived, int isCargoHere);\n\n   function TrainNotarization() public{\n       admin = msg.sender;\n   }\n  \n\n  function updateTrainStationData(address _trainStationAddress, int _pressure, int _humidity, int _temperature, int _timestamp, int _isTrainArrived, int _isCargoHere) public {\n\n      trainStationDataRegistered(_trainStationAddress, _pressure, _humidity, _temperature, _timestamp, _isTrainArrived, _isCargoHere);\n  }\n\n  function updateTrainData(address _trainAddress, int _pressure, int _humidity, int _temperature, int _timestamp) public {\n\n      trainDataRegistered(_trainAddress, _pressure, _humidity, _temperature, _timestamp);\n  }\n\n\n}\n",
  "sourcePath": "/home/julien/Documents/hackathon_amsterdam/solidity/contracts/TrainNotarization.sol",
  "compiler": {
    "name": "solc",
    "version": "0.4.21+commit.dfe3193c.Emscripten.clang"
  },
  "schemaVersion": "2.0.0",
  "updatedAt": "2018-04-07T04:24:29.059Z"
}